{
  "_format": "hh-sol-artifact-1",
  "contractName": "Gallery",
  "sourceName": "contracts/Gallery.sol",
  "abi": [
    {
      "inputs": [],
      "name": "retrieveAllImages",
      "outputs": [
        {
          "components": [
            {
              "internalType": "string",
              "name": "title",
              "type": "string"
            },
            {
              "internalType": "string",
              "name": "imageMetaDataUrl",
              "type": "string"
            }
          ],
          "internalType": "struct Gallery.Image[]",
          "name": "",
          "type": "tuple[]"
        }
      ],
      "stateMutability": "view",
      "type": "function"
    },
    {
      "inputs": [],
      "name": "retrieveImagesByAuthor",
      "outputs": [
        {
          "components": [
            {
              "internalType": "string",
              "name": "title",
              "type": "string"
            },
            {
              "internalType": "string",
              "name": "imageMetaDataUrl",
              "type": "string"
            }
          ],
          "internalType": "struct Gallery.Image[]",
          "name": "",
          "type": "tuple[]"
        }
      ],
      "stateMutability": "view",
      "type": "function"
    },
    {
      "inputs": [
        {
          "internalType": "string",
          "name": "title",
          "type": "string"
        },
        {
          "internalType": "string",
          "name": "imageMetaDataUrl",
          "type": "string"
        }
      ],
      "name": "store",
      "outputs": [],
      "stateMutability": "nonpayable",
      "type": "function"
    }
  ],
  "bytecode": "0x608060405234801561001057600080fd5b506109a0806100206000396000f3fe608060405234801561001057600080fd5b50600436106100415760003560e01c80631ee896761461004657806388bb202214610064578063f641090c14610082575b600080fd5b61004e61009e565b60405161005b9190610789565b60405180910390f35b61006c61025e565b6040516100799190610789565b60405180910390f35b61009c60048036038101906100979190610617565b6103e1565b005b6060600160003373ffffffffffffffffffffffffffffffffffffffff1673ffffffffffffffffffffffffffffffffffffffff168152602001908152602001600020805480602002602001604051908101604052809291908181526020016000905b82821015610255578382906000526020600020906002020160405180604001604052908160008201805461013290610898565b80601f016020809104026020016040519081016040528092919081815260200182805461015e90610898565b80156101ab5780601f10610180576101008083540402835291602001916101ab565b820191906000526020600020905b81548152906001019060200180831161018e57829003601f168201915b505050505081526020016001820180546101c490610898565b80601f01602080910402602001604051908101604052809291908181526020018280546101f090610898565b801561023d5780601f106102125761010080835404028352916020019161023d565b820191906000526020600020905b81548152906001019060200180831161022057829003601f168201915b505050505081525050815260200190600101906100ff565b50505050905090565b60606000805480602002602001604051908101604052809291908181526020016000905b828210156103d857838290600052602060002090600202016040518060400160405290816000820180546102b590610898565b80601f01602080910402602001604051908101604052809291908181526020018280546102e190610898565b801561032e5780601f106103035761010080835404028352916020019161032e565b820191906000526020600020905b81548152906001019060200180831161031157829003601f168201915b5050505050815260200160018201805461034790610898565b80601f016020809104026020016040519081016040528092919081815260200182805461037390610898565b80156103c05780601f10610395576101008083540402835291602001916103c0565b820191906000526020600020905b8154815290600101906020018083116103a357829003601f168201915b50505050508152505081526020019060010190610282565b50505050905090565b600060405180604001604052808481526020018381525090506000819080600181540180825580915050600190039060005260206000209060020201600090919091909150600082015181600001908051906020019061044292919061050c565b50602082015181600101908051906020019061045f92919061050c565b505050600160003373ffffffffffffffffffffffffffffffffffffffff1673ffffffffffffffffffffffffffffffffffffffff16815260200190815260200160002081908060018154018082558091505060019003906000526020600020906002020160009091909190915060008201518160000190805190602001906104e792919061050c565b50602082015181600101908051906020019061050492919061050c565b505050505050565b82805461051890610898565b90600052602060002090601f01602090048101928261053a5760008555610581565b82601f1061055357805160ff1916838001178555610581565b82800160010185558215610581579182015b82811115610580578251825591602001919060010190610565565b5b50905061058e9190610592565b5090565b5b808211156105ab576000816000905550600101610593565b5090565b60006105c26105bd846107d0565b6107ab565b9050828152602081018484840111156105da57600080fd5b6105e5848285610856565b509392505050565b600082601f8301126105fe57600080fd5b813561060e8482602086016105af565b91505092915050565b6000806040838503121561062a57600080fd5b600083013567ffffffffffffffff81111561064457600080fd5b610650858286016105ed565b925050602083013567ffffffffffffffff81111561066d57600080fd5b610679858286016105ed565b9150509250929050565b600061068f8383610745565b905092915050565b60006106a282610811565b6106ac8185610834565b9350836020820285016106be85610801565b8060005b858110156106fa57848403895281516106db8582610683565b94506106e683610827565b925060208a019950506001810190506106c2565b50829750879550505050505092915050565b60006107178261081c565b6107218185610845565b9350610731818560208601610865565b61073a81610959565b840191505092915050565b60006040830160008301518482036000860152610762828261070c565b9150506020830151848203602086015261077c828261070c565b9150508091505092915050565b600060208201905081810360008301526107a38184610697565b905092915050565b60006107b56107c6565b90506107c182826108ca565b919050565b6000604051905090565b600067ffffffffffffffff8211156107eb576107ea61092a565b5b6107f482610959565b9050602081019050919050565b6000819050602082019050919050565b600081519050919050565b600081519050919050565b6000602082019050919050565b600082825260208201905092915050565b600082825260208201905092915050565b82818337600083830152505050565b60005b83811015610883578082015181840152602081019050610868565b83811115610892576000848401525b50505050565b600060028204905060018216806108b057607f821691505b602082108114156108c4576108c36108fb565b5b50919050565b6108d382610959565b810181811067ffffffffffffffff821117156108f2576108f161092a565b5b80604052505050565b7f4e487b7100000000000000000000000000000000000000000000000000000000600052602260045260246000fd5b7f4e487b7100000000000000000000000000000000000000000000000000000000600052604160045260246000fd5b6000601f19601f830116905091905056fea26469706673582212205da2676aa7c9527c21c4b58745d77b16fd0e15c7d796b0e91fb0cac5688f0d4364736f6c63430008040033",
  "linkReferences": {},
  "deployedLinkReferences": {}
}